{
  "contractName": "VotingSystem",
  "abi": [
    {
      "inputs": [],
      "stateMutability": "nonpayable",
      "type": "constructor"
    },
    {
      "anonymous": false,
      "inputs": [
        {
          "indexed": false,
          "internalType": "uint256",
          "name": "id",
          "type": "uint256"
        },
        {
          "indexed": false,
          "internalType": "string",
          "name": "name",
          "type": "string"
        }
      ],
      "name": "CandidateAdded",
      "type": "event"
    },
    {
      "anonymous": false,
      "inputs": [
        {
          "indexed": false,
          "internalType": "uint256",
          "name": "candidateId",
          "type": "uint256"
        },
        {
          "indexed": false,
          "internalType": "address",
          "name": "voter",
          "type": "address"
        }
      ],
      "name": "Voted",
      "type": "event"
    },
    {
      "anonymous": false,
      "inputs": [
        {
          "indexed": false,
          "internalType": "bool",
          "name": "isOpen",
          "type": "bool"
        }
      ],
      "name": "VotingStatusChanged",
      "type": "event"
    },
    {
      "inputs": [],
      "name": "admin",
      "outputs": [
        {
          "internalType": "address",
          "name": "",
          "type": "address"
        }
      ],
      "stateMutability": "view",
      "type": "function",
      "constant": true
    },
    {
      "inputs": [
        {
          "internalType": "uint256",
          "name": "",
          "type": "uint256"
        }
      ],
      "name": "candidates",
      "outputs": [
        {
          "internalType": "uint256",
          "name": "id",
          "type": "uint256"
        },
        {
          "internalType": "string",
          "name": "name",
          "type": "string"
        },
        {
          "internalType": "uint256",
          "name": "voteCount",
          "type": "uint256"
        }
      ],
      "stateMutability": "view",
      "type": "function",
      "constant": true
    },
    {
      "inputs": [],
      "name": "candidatesCount",
      "outputs": [
        {
          "internalType": "uint256",
          "name": "",
          "type": "uint256"
        }
      ],
      "stateMutability": "view",
      "type": "function",
      "constant": true
    },
    {
      "inputs": [
        {
          "internalType": "address",
          "name": "",
          "type": "address"
        }
      ],
      "name": "voters",
      "outputs": [
        {
          "internalType": "bool",
          "name": "hasVoted",
          "type": "bool"
        },
        {
          "internalType": "uint256",
          "name": "votedCandidateId",
          "type": "uint256"
        }
      ],
      "stateMutability": "view",
      "type": "function",
      "constant": true
    },
    {
      "inputs": [],
      "name": "votingOpen",
      "outputs": [
        {
          "internalType": "bool",
          "name": "",
          "type": "bool"
        }
      ],
      "stateMutability": "view",
      "type": "function",
      "constant": true
    },
    {
      "inputs": [
        {
          "internalType": "string",
          "name": "_name",
          "type": "string"
        }
      ],
      "name": "addCandidate",
      "outputs": [],
      "stateMutability": "nonpayable",
      "type": "function"
    },
    {
      "inputs": [
        {
          "internalType": "uint256",
          "name": "_candidateId",
          "type": "uint256"
        }
      ],
      "name": "vote",
      "outputs": [],
      "stateMutability": "nonpayable",
      "type": "function"
    },
    {
      "inputs": [
        {
          "internalType": "uint256",
          "name": "_candidateId",
          "type": "uint256"
        }
      ],
      "name": "getCandidate",
      "outputs": [
        {
          "internalType": "uint256",
          "name": "",
          "type": "uint256"
        },
        {
          "internalType": "string",
          "name": "",
          "type": "string"
        },
        {
          "internalType": "uint256",
          "name": "",
          "type": "uint256"
        }
      ],
      "stateMutability": "view",
      "type": "function",
      "constant": true
    },
    {
      "inputs": [],
      "name": "toggleVotingStatus",
      "outputs": [],
      "stateMutability": "nonpayable",
      "type": "function"
    },
    {
      "inputs": [
        {
          "internalType": "uint256",
          "name": "_candidateId",
          "type": "uint256"
        }
      ],
      "name": "getCandidateVotes",
      "outputs": [
        {
          "internalType": "uint256",
          "name": "",
          "type": "uint256"
        }
      ],
      "stateMutability": "view",
      "type": "function",
      "constant": true
    }
  ],
  "bytecode": "0x608060405234801561001057600080fd5b50336000806101000a81548173ffffffffffffffffffffffffffffffffffffffff021916908373ffffffffffffffffffffffffffffffffffffffff1602179055506000600460006101000a81548160ff02191690831515021790555060006003819055506110c5806100836000396000f3fe608060405234801561001057600080fd5b506004361061009e5760003560e01c8063866163c011610066578063866163c01461015d57806388006e8d1461018d578063a3ec138d14610197578063a95824b4146101c8578063f851a440146101e65761009e565b80630121b93f146100a35780632d35a8a2146100bf5780633477ee2e146100dd57806335b8e8201461010f578063462e91ec14610141575b600080fd5b6100bd60048036038101906100b89190610afb565b610204565b005b6100c7610440565b6040516100d49190610d8f565b60405180910390f35b6100f760048036038101906100f29190610afb565b610446565b60405161010693929190610e03565b60405180910390f35b61012960048036038101906101249190610afb565b6104f8565b60405161013893929190610e03565b60405180910390f35b61015b60048036038101906101569190610aba565b610636565b005b61017760048036038101906101729190610afb565b610781565b6040516101849190610d8f565b60405180910390f35b6101956107f4565b005b6101b160048036038101906101ac9190610a91565b6108f4565b6040516101bf929190610ce6565b60405180910390f35b6101d0610925565b6040516101dd9190610ccb565b60405180910390f35b6101ee610938565b6040516101fb9190610cb0565b60405180910390f35b600460009054906101000a900460ff16610253576040517f08c379a000000000000000000000000000000000000000000000000000000000815260040161024a90610d2f565b60405180910390fd5b8060008111801561026657506003548111155b6102a5576040517f08c379a000000000000000000000000000000000000000000000000000000000815260040161029c90610d0f565b60405180910390fd5b600260003373ffffffffffffffffffffffffffffffffffffffff1673ffffffffffffffffffffffffffffffffffffffff16815260200190815260200160002060000160009054906101000a900460ff1615610335576040517f08c379a000000000000000000000000000000000000000000000000000000000815260040161032c90610d6f565b60405180910390fd5b6001600260003373ffffffffffffffffffffffffffffffffffffffff1673ffffffffffffffffffffffffffffffffffffffff16815260200190815260200160002060000160006101000a81548160ff02191690831515021790555081600260003373ffffffffffffffffffffffffffffffffffffffff1673ffffffffffffffffffffffffffffffffffffffff168152602001908152602001600020600101819055506001600083815260200190815260200160002060020160008154809291906103fe90610f7a565b91905055507f030b0f8dcd86a031eddb071f91882edeac8173663ba775713b677b42b51be44b8233604051610434929190610daa565b60405180910390a15050565b60035481565b600160205280600052604060002060009150905080600001549080600101805461046f90610f48565b80601f016020809104026020016040519081016040528092919081815260200182805461049b90610f48565b80156104e85780601f106104bd576101008083540402835291602001916104e8565b820191906000526020600020905b8154815290600101906020018083116104cb57829003601f168201915b5050505050908060020154905083565b6000606060008360008111801561051157506003548111155b610550576040517f08c379a000000000000000000000000000000000000000000000000000000000815260040161054790610d0f565b60405180910390fd5b6000600160008781526020019081526020016000206040518060600160405290816000820154815260200160018201805461058a90610f48565b80601f01602080910402602001604051908101604052809291908181526020018280546105b690610f48565b80156106035780601f106105d857610100808354040283529160200191610603565b820191906000526020600020905b8154815290600101906020018083116105e657829003601f168201915b50505050508152602001600282015481525050905080600001518160200151826040015194509450945050509193909250565b60008054906101000a900473ffffffffffffffffffffffffffffffffffffffff1673ffffffffffffffffffffffffffffffffffffffff163373ffffffffffffffffffffffffffffffffffffffff16146106c4576040517f08c379a00000000000000000000000000000000000000000000000000000000081526004016106bb90610d4f565b60405180910390fd5b600360008154809291906106d790610f7a565b919050555060405180606001604052806003548152602001828152602001600081525060016000600354815260200190815260200160002060008201518160000155602082015181600101908051906020019061073592919061095c565b50604082015181600201559050507fe83b2a43e7e82d975c8a0a6d2f045153c869e111136a34d1889ab7b598e396a360035482604051610776929190610dd3565b60405180910390a150565b60008160008111801561079657506003548111155b6107d5576040517f08c379a00000000000000000000000000000000000000000000000000000000081526004016107cc90610d0f565b60405180910390fd5b6001600084815260200190815260200160002060020154915050919050565b60008054906101000a900473ffffffffffffffffffffffffffffffffffffffff1673ffffffffffffffffffffffffffffffffffffffff163373ffffffffffffffffffffffffffffffffffffffff1614610882576040517f08c379a000000000000000000000000000000000000000000000000000000000815260040161087990610d4f565b60405180910390fd5b600460009054906101000a900460ff1615600460006101000a81548160ff0219169083151502179055507f9069a1a16ace751e8690f383e12f87b01e8488ba387e626810bd113fef0417f9600460009054906101000a900460ff166040516108ea9190610ccb565b60405180910390a1565b60026020528060005260406000206000915090508060000160009054906101000a900460ff16908060010154905082565b600460009054906101000a900460ff1681565b60008054906101000a900473ffffffffffffffffffffffffffffffffffffffff1681565b82805461096890610f48565b90600052602060002090601f01602090048101928261098a57600085556109d1565b82601f106109a357805160ff19168380011785556109d1565b828001600101855582156109d1579182015b828111156109d05782518255916020019190600101906109b5565b5b5090506109de91906109e2565b5090565b5b808211156109fb5760008160009055506001016109e3565b5090565b6000610a12610a0d84610e72565b610e41565b905082815260208101848484011115610a2a57600080fd5b610a35848285610f06565b509392505050565b600081359050610a4c81611061565b92915050565b600082601f830112610a6357600080fd5b8135610a738482602086016109ff565b91505092915050565b600081359050610a8b81611078565b92915050565b600060208284031215610aa357600080fd5b6000610ab184828501610a3d565b91505092915050565b600060208284031215610acc57600080fd5b600082013567ffffffffffffffff811115610ae657600080fd5b610af284828501610a52565b91505092915050565b600060208284031215610b0d57600080fd5b6000610b1b84828501610a7c565b91505092915050565b610b2d81610ebe565b82525050565b610b3c81610ed0565b82525050565b6000610b4d82610ea2565b610b578185610ead565b9350610b67818560208601610f15565b610b7081611050565b840191505092915050565b6000610b88601183610ead565b91507f496e76616c69642063616e6469646174650000000000000000000000000000006000830152602082019050919050565b6000610bc8601c83610ead565b91507f566f74696e67206973206e6f742063757272656e746c79206f70656e000000006000830152602082019050919050565b6000610c08602283610ead565b91507f4f6e6c792061646d696e2063616e20706572666f726d2074686973206163746960008301527f6f6e0000000000000000000000000000000000000000000000000000000000006020830152604082019050919050565b6000610c6e601683610ead565b91507f596f75206861766520616c726561647920766f746564000000000000000000006000830152602082019050919050565b610caa81610efc565b82525050565b6000602082019050610cc56000830184610b24565b92915050565b6000602082019050610ce06000830184610b33565b92915050565b6000604082019050610cfb6000830185610b33565b610d086020830184610ca1565b9392505050565b60006020820190508181036000830152610d2881610b7b565b9050919050565b60006020820190508181036000830152610d4881610bbb565b9050919050565b60006020820190508181036000830152610d6881610bfb565b9050919050565b60006020820190508181036000830152610d8881610c61565b9050919050565b6000602082019050610da46000830184610ca1565b92915050565b6000604082019050610dbf6000830185610ca1565b610dcc6020830184610b24565b9392505050565b6000604082019050610de86000830185610ca1565b8181036020830152610dfa8184610b42565b90509392505050565b6000606082019050610e186000830186610ca1565b8181036020830152610e2a8185610b42565b9050610e396040830184610ca1565b949350505050565b6000604051905081810181811067ffffffffffffffff82111715610e6857610e67611021565b5b8060405250919050565b600067ffffffffffffffff821115610e8d57610e8c611021565b5b601f19601f8301169050602081019050919050565b600081519050919050565b600082825260208201905092915050565b6000610ec982610edc565b9050919050565b60008115159050919050565b600073ffffffffffffffffffffffffffffffffffffffff82169050919050565b6000819050919050565b82818337600083830152505050565b60005b83811015610f33578082015181840152602081019050610f18565b83811115610f42576000848401525b50505050565b60006002820490506001821680610f6057607f821691505b60208210811415610f7457610f73610ff2565b5b50919050565b6000610f8582610efc565b91507fffffffffffffffffffffffffffffffffffffffffffffffffffffffffffffffff821415610fb857610fb7610fc3565b5b600182019050919050565b7f4e487b7100000000000000000000000000000000000000000000000000000000600052601160045260246000fd5b7f4e487b7100000000000000000000000000000000000000000000000000000000600052602260045260246000fd5b7f4e487b7100000000000000000000000000000000000000000000000000000000600052604160045260246000fd5b6000601f19601f8301169050919050565b61106a81610ebe565b811461107557600080fd5b50565b61108181610efc565b811461108c57600080fd5b5056fea264697066735822122053a7029bbcc5cf4784eacc329b1c99c00fbdb81f70e3af9d68ce144b041d134464736f6c63430008000033",
  "immutableReferences": {},
  "source": "pragma solidity ^0.8.0;\n\ncontract VotingSystem {\n    // Struct to represent a candidate\n    struct Candidate {\n        uint256 id;\n        string name;\n        uint256 voteCount;\n    }\n\n    // Struct to track voter information\n    struct Voter {\n        bool hasVoted;\n        uint256 votedCandidateId;\n    }\n\n    // State variables\n    address public admin;\n    mapping(uint256 => Candidate) public candidates;\n    mapping(address => Voter) public voters;\n    uint256 public candidatesCount;\n    bool public votingOpen;\n\n    // Events\n    event CandidateAdded(uint256 id, string name);\n    event Voted(uint256 candidateId, address voter);\n    event VotingStatusChanged(bool isOpen);\n\n    // Modifiers\n    modifier onlyAdmin() {\n        require(msg.sender == admin, \"Only admin can perform this action\");\n        _;\n    }\n\n    modifier votingIsOpen() {\n        require(votingOpen, \"Voting is not currently open\");\n        _;\n    }\n\n    modifier validCandidate(uint256 _candidateId) {\n        require(_candidateId > 0 && _candidateId <= candidatesCount, \"Invalid candidate\");\n        _;\n    }\n\n    modifier voterHasNotVoted() {\n        require(!voters[msg.sender].hasVoted, \"You have already voted\");\n        _;\n    }\n\n    // Constructor\n    constructor() {\n        admin = msg.sender;\n        votingOpen = false;\n        candidatesCount = 0;\n    }\n\n    // Add a new candidate\n    function addCandidate(string memory _name) public onlyAdmin {\n        candidatesCount++;\n        candidates[candidatesCount] = Candidate(candidatesCount, _name, 0);\n        emit CandidateAdded(candidatesCount, _name);\n    }\n\n    // Vote for a candidate\n    function vote(uint256 _candidateId) public votingIsOpen validCandidate(_candidateId) voterHasNotVoted {\n        // Record the vote\n        voters[msg.sender].hasVoted = true;\n        voters[msg.sender].votedCandidateId = _candidateId;\n\n        // Increment candidate vote count\n        candidates[_candidateId].voteCount++;\n\n        // Emit voting event\n        emit Voted(_candidateId, msg.sender);\n    }\n\n    // Get candidate details\n    function getCandidate(uint256 _candidateId) public view validCandidate(_candidateId) returns (uint256, string memory, uint256) {\n        Candidate memory candidate = candidates[_candidateId];\n        return (candidate.id, candidate.name, candidate.voteCount);\n    }\n\n    // Toggle voting status (open/close)\n    function toggleVotingStatus() public onlyAdmin {\n        votingOpen = !votingOpen;\n        emit VotingStatusChanged(votingOpen);\n    }\n\n    // Get total votes for a candidate\n    function getCandidateVotes(uint256 _candidateId) public view validCandidate(_candidateId) returns (uint256) {\n        return candidates[_candidateId].voteCount;\n    }\n}",
  "sourcePath": "/Users/vanshika/blockchain-voting-system:/contracts/VotingSystem.sol",
  "compiler": {
    "name": "solc",
    "version": "0.8.0+commit.c7dfd78e.Emscripten.clang"
  },
  "schemaVersion": "3.4.16",
  "updatedAt": "2025-03-27T02:14:16.787Z",
  "networkType": "ethereum",
  "devdoc": {
    "kind": "dev",
    "methods": {},
    "version": 1
  },
  "userdoc": {
    "kind": "user",
    "methods": {},
    "version": 1
  }
}